:100000000C945D000C9485000C9485000C94850084
:100010000C9485000C9485000C9485000C9485004C
:100020000C9485000C9485000C9485000C9485003C
:100030000C9485000C9485000C9485000C9485002C
:100040000C9431030C9485000C9485000C9485006D
:100050000C9485000C9485000C9485000C9485000C
:100060000C9485000C9485000000000024002700FB
:100070002A0000000000250028002B0004040404CE
:100080000404040402020202020203030303030342
:10009000010204081020408001020408102001021F
:1000A00004081020000000080002010000030407FB
:1000B0000000000000000000340411241FBECFEF38
:1000C000D8E0DEBFCDBF11E0A0E0B1E0E4EBF8E0A6
:1000D00002C005900D92AA32B107D9F721E0AAE239
:1000E000B1E001C01D92AB34B207E1F710E0CDE5FD
:1000F000D0E004C02197FE010E945204CC35D10704
:10010000C9F70E947B030C9458040C940000AF9232
:10011000BF92CF92DF92EF92FF920F931F93CF93F4
:10012000DF936C017B018B01040F151FEB015E0156
:10013000AE18BF08C017D10759F06991D601ED91EB
:10014000FC910190F081E02DC6010995892B79F78A
:10015000C501DF91CF911F910F91FF90EF90DF903C
:10016000CF90BF90AF90089590E0FC01EC55FF4F09
:100170002491FC01E057FF4F3491FC01E458FF4FFC
:10018000E491EE23C9F0222339F0233001F1A8F4E1
:10019000213019F1223029F1F0E0EE0FFF1FEE5867
:1001A000FF4FA591B4918FB7F894EC91611126C0DF
:1001B00030953E233C938FBF08952730A9F0283017
:1001C000C9F0243049F7809180008F7D03C0809171
:1001D00080008F7780938000DFCF84B58F7784BDD8
:1001E000DBCF84B58F7DFBCF8091B0008F7780937C
:1001F000B000D2CF8091B0008F7DF9CF3E2BDACF07
:10020000CF93DF9390E0FC01E057FF4F2491845897
:100210009F4FFC0184918823D1F090E0880F991FB3
:10022000FC01E859FF4FA591B491FC01EE58FF4F36
:10023000C591D49161110EC09FB7F8948C91E22FB3
:10024000E0958E238C932881E223E8839FBFDF9182
:10025000CF9108958FB7F894EC91E22BEC938FBF78
:10026000F6CFE82FF0E0EC55FF4FE491E33029F1B1
:1002700050F4E130C1F0E230D9F060387105BCF5DE
:1002800060E00C94B400E73011F1E83041F1E43063
:10029000A1F78091800080628093800070938B0032
:1002A00060938A00089584B5806884BD67BD089511
:1002B00084B5806284BD68BD0895809180008068A7
:1002C00080938000709389006093880008958091E6
:1002D000B00080688093B0006093B300089580916F
:1002E000B00080628093B0006093B400089561E034
:1002F000C8CF3FB7F89480912F0190913001A09121
:100300003101B091320126B5A89B05C02F3F19F0ED
:100310000196A11DB11D3FBFBA2FA92F982F882785
:10032000BC01CD01620F711D811D911D42E0660F60
:10033000771F881F991F4A95D1F708958F929F9232
:10034000AF92BF92CF92DF92EF92FF920E9479011B
:100350004B015C018AE0C82ED12CE12CF12C0E94CB
:100360007901681979098A099B09683E73408105FA
:100370009105A8F321E0C21AD108E108F10888EE3E
:10038000880E83E0981EA11CB11CC114D104E104A5
:10039000F10429F7FF90EF90DF90CF90BF90AF90DE
:1003A0009F908F900895089590E080E00895CF93F6
:1003B000DF93EC0160E08E810E94B40061E08E81E9
:1003C0000E94B40060E08E810E94B4008BE891E04E
:1003D0000197F1F7DF91CF910895CF92DF92EF92DD
:1003E000FF920F931F93CF93DF936C017C0187E003
:1003F000E80EF11CD0E0C0E0062F10E0B8010C2E92
:1004000002C0759567950A94E2F76170F7018191D2
:100410007F010E94B4002196C430D10579F7C6014E
:10042000DF91CF911F910F91FF90EF90DF90CF90D0
:100430000C94D701CF92DF92EF92FF920F931F930C
:10044000CF93DF93EC01F62E642F8C810E94B400D1
:100450008D818F3F19F060E00E94B4000F2D10E0F5
:100460008F8584FF25C06E0187E0C80ED11CF12C5A
:10047000E12CB8010E2C02C0759567950A94E2F73D
:100480006170F60181916F010E94B400FFEFEF1AD5
:10049000FF0A88E0E816F10461F7CE01DF91CF9101
:1004A0001F910F91FF90EF90DF90CF900C94D701A8
:1004B000B80184E0759567958A95E1F7CE010E94B1
:1004C000ED016F2DCE01DF91CF911F910F91FF9024
:1004D000EF90DF90CF900C94ED0140E061E083E37A
:1004E00091E00E941A028BE39FE10197F1F70895D2
:1004F000CF93DF93823029F49091420198609093DA
:100500004201809346011092470180E480934801A4
:1005100080E18093490180E580934A0161E0809108
:1005200037010E940001809138018F3F19F061E08E
:100530000E94000161E0809139010E940001C3E343
:10054000D1E09E01235331408091420184FD0BC0D4
:1005500084E090E021962817390744F461E08E8109
:100560000E940001EECF88E090E0F4CF8BE39DE0A5
:100570000197F1F760E0809137010E94B40060E0DC
:10058000809139010E94B400809138018F3F19F0A9
:1005900060E00E94B4006091420164FD3DC063E0F0
:1005A00083E391E00E94ED01CBE4D6E4CE01019714
:1005B000F1F763E083E391E00E94ED012197F1F709
:1005C00063E083E391E00E94ED0183E592E001970F
:1005D000F1F762E083E391E00E94ED016091420156
:1005E000606240E083E391E00E941A0284E080931D
:1005F000430140E06CE083E391E00E941A020E9414
:100600006D0282E08093440140E066E083E391E084
:10061000DF91CF910C941A02606240E083E391E095
:100620000E941A028BE496E40197F1F7609142016F
:10063000606240E083E391E00E941A0283E592E069
:100640000197F1F760914201606240E083E391E03D
:100650000E941A02C3CF41E00E941A0281E090E09A
:1006600008951F920F920FB60F9211242F933F936C
:100670008F939F93AF93BF9380912B0190912C0107
:10068000A0912D01B0912E0130912A0123E0230F7A
:100690002D3758F50196A11DB11D20932A01809395
:1006A0002B0190932C01A0932D01B0932E018091EA
:1006B0002F0190913001A0913101B091320101964A
:1006C000A11DB11D80932F0190933001A0933101A2
:1006D000B0933201BF91AF919F918F913F912F9134
:1006E0000F900FBE0F901F90189526E8230F0296CB
:1006F000A11DB11DD2CF789484B5826084BD84B52C
:10070000816084BD85B5826085BD85B5816085BD0C
:1007100080916E00816080936E00109281008091C4
:10072000810082608093810080918100816080934C
:100730008100809180008160809380008091B10071
:1007400084608093B1008091B00081608093B0009C
:1007500080917A00846080937A0080917A00826030
:1007600080937A0080917A00816080937A008091F2
:100770007A00806880937A001092C10082E00E9423
:10078000780260E082E10E94000161E089E00E945D
:10079000000161E080E10E94000161E083E10E94CC
:1007A000000161E083E10E94000160E083E10E94BA
:1007B000B400C4E400E010E0C0937C0080917A00B3
:1007C000806480937A0080917A0086FDFCCF9091BE
:1007D000780080917900892798278927893C91059D
:1007E00044F161E089E00E94B40061E080E10E9490
:1007F000000161E070E080E10E94310161E083E18D
:100800000E94000160E074E083E10E9431010E94D7
:100810006D0240E150E06CE071E083E391E00E9402
:1008200087000E949E010115110531F20E9400000F
:10083000C3CF60E089E00E94B40061E080E10E94E3
:10084000000160E080E10E94B40061E083E10E9469
:10085000000160E083E10E94B4000E946D024CE060
:1008600050E06DE171E0D9CFE3E3F1E01382128251
:1008700084E091E09183808383E084838FEF85839C
:1008800082E0868387E0878386E0808785E08187B2
:1008900084E082871386148615861686178681E083
:1008A0000C947802EE0FFF1F0590F491E02D09944F
:0408B000F894FFCFEA
:1008B400000000002B038700D401D30146495245B0
:1008C40020444554454354454421212100594F5562
:0A08D40020415245205341464500E3
:00000001FF
